:100000000C9445010C9476010C9476010C947601C5
:100010000C9476010C9476010C9476010C94760184
:100020000C9476010C9476010C9476010C94760174
:100030000C9476010C9476010C9476010C94760164
:100040000C9476010C9476010C9476010C94760154
:100050000C9476010C9476010C9476010C94C204F5
:100060000C9476010C9436050C940C050C947601D6
:100070000C9476010C9476010C9476010C94760124
:100080000C9476010C9476010C9476010C94760114
:100090000C9476010C9476010C9476010C94760104
:1000A0000C9476010C9476010C9476010C947601F4
:1000B0000C9476010C9476010C9476010C947601E4
:1000C0000C9476010C9476010C9476010C947601D4
:1000D0000C9476010C9476010C9476010C947601C4
:1000E0000C9476019E01A101900194019A01D8011E
:1000F000A501A901AF01B301B701BD01C101C5014E
:10010000D801CB01CF01D3010C9494010C949A0136
:100110000C94BD010C94C5010C9456070C94A901D4
:100120000C94A5010C94AF010C94CB010C94C1016B
:100130000C945E030C94D2020C9417030C94A1014E
:100140000C94B7010C9493020C94E0020C94D80127
:100150000C94BE020C9490010C949E010C94CF015F
:100160000C94B3010C94D30100002100240027005B
:100170002A002D00300033000101000004010701B6
:100180000A0100002200250028002B002E0031006B
:10019000340002010000050108010B0100002000ED
:1001A0002300260029002C002F003200000100004F
:1001B00003010601090105050505070508080808EA
:1001C000020202020A0A08080404040401010101EF
:1001D00001010101030303030303030304070707EA
:1001E0000C0C0C0C0C0C0C0C02020202060606068F
:1001F000060606060B0B0B0B0B0B0B0B010210205C
:10020000200808102040102040800201020108044C
:1002100002010102040810204080804020100804E0
:100220000201800402018040201008040201080439
:10023000020101020408102040800102040810207D
:10024000408000000A0B02090C0D0E080703040190
:10025000000000000000000000000000000000009E
:10026000000000000000000000000000000012116B
:10027000100000000000000000000000000000006E
:100280000000000000000000560711241FBECFEF41
:10029000D1E2DEBFCDBF00E00CBF12E0A0E0B2E0D3
:1002A000ECEFF2E100E00BBF02C007900D92A63D1B
:1002B000B107D9F723E0A6EDB2E001C01D92AE3739
:1002C000B207E1F711E0C5E4D1E000E006C02197F4
:1002D0000109802FFE010E946F09C434D10780E01C
:1002E0000807A9F70E946C050C947C090C94000087
:1002F000E091E102F091E2020190F081E02D682F9F
:1003000081EE92E0199490E0FC013197E231F10521
:1003100008F04EC08827EE58FF4F8F4F0C946F099E
:10032000809180008F7703C0809180008F7D8093C3
:100330008000089580918000877FF9CF84B58F7702
:1003400002C084B58F7D84BD08958091B0008F7701
:1003500003C08091B0008F7D8093B000089580919C
:1003600090008F7707C0809190008F7D03C08091AF
:100370009000877F8093900008958091A0008F77F0
:1003800007C08091A0008F7D03C08091A000877F6F
:100390008093A0000895809120018F7707C08091FD
:1003A00020018F7D03C080912001877F80932001F1
:1003B0000895CF93DF93282F30E0F901EE5BFD4FD6
:1003C0008491F901E450FE4FD491F901EA54FE4FB3
:1003D000C491CC2391F081110E948301EC2FF0E0B5
:1003E000EE0FFF1FE456FE4FA591B491EC91ED2363
:1003F00081E090E021F480E002C080E090E0DF91B5
:10040000CF9108951F93CF93DF93282F30E0F90108
:10041000EE5BFD4F8491F901E450FE4FD491F90158
:10042000EA54FE4FC491CC23C9F0162F81110E94CB
:100430008301EC2FF0E0EE0FFF1FEE57FE4FA5916A
:10044000B4918FB7F894111105C09C91ED2FE095F0
:10045000E92302C0EC91ED2BEC938FBFDF91CF919C
:100460001F910895CF93DF9390E0FC01E450FE4F7D
:100470002491FC01EA54FE4F8491882361F190E0BD
:10048000880F991FFC01E859FE4FC591D491FC01DA
:10049000EE57FE4FA591B491611109C09FB7F89432
:1004A0008881209582238883EC912E230BC06230B3
:1004B00061F49FB7F8943881822F809583238883D5
:1004C000EC912E2B2C939FBF06C08FB7F894E88138
:1004D0002E2B28838FBFDF91CF9108953FB7F894DB
:1004E0008091DD029091DE02A091DF02B091E002E6
:1004F00026B5A89B05C02F3F19F00196A11DB11D7F
:100500003FBFBA2FA92F982F8827820F911DA11DB9
:10051000B11DBC01CD0142E0660F771F881F991FF6
:100520004A95D1F70895CF92DF92EF92FF920F9301
:100530001F93CF93DF936C017A018B01C0E0D0E071
:10054000CE15DF0589F0D8016D918D01D601ED91B1
:10055000FC910190F081E02DC6011995892B11F4D1
:100560007E0102C02196ECCFC701DF91CF911F9190
:100570000F91FF90EF90DF90CF900895FC01918D47
:10058000828D981761F0828DDF01A80FB11D5D96F5
:100590008C91928D9F5F9F73928F90E008958FEF63
:1005A0009FEF0895FC01918D828D981731F0828D17
:1005B000E80FF11D858D90E008958FEF9FEF08956E
:1005C000FC01918D228D892F90E0805C9F4F821BD2
:1005D00091098F739927089581EE92E00E94E002BD
:1005E00021E0892B09F420E0822F0895FC01848DFD
:1005F000DF01A80FB11DA35ABF4F2C91848D90E04D
:1006000001968F739927848FA689B7892C93A08927
:10061000B1898C9180648C93938D848D981306C0DE
:100620000288F389E02D80818F7D80830895EF9289
:10063000FF920F931F93CF93DF93EC0181E0888F9C
:100640009B8D8C8D981305C0E889F989808185FD83
:1006500024C0F62E0B8D10E00F5F1F4F0F73112774
:10066000E02E8C8DE8120CC00FB607FCFACFE8899B
:10067000F989808185FFF5CFCE010E94F602F1CF86
:100680008B8DFE01E80FF11DE35AFF4FF0820B8FB7
:10069000EA89FB898081806207C0EE89FF896083D7
:1006A000E889F98980818064808381E090E0DF912E
:1006B000CF911F910F91FF90EF900895CF93DF930B
:1006C000EC01888D8823C9F0EA89FB89808185FD4A
:1006D00005C0A889B9898C9186FD0FC00FB607FCAB
:1006E000F5CF808185FFF2CFA889B9898C9185FFEC
:1006F000EDCFCE010E94F602E7CFDF91CF910895B2
:1007000080E090E0892B21F00E94EC02811125C04D
:1007100080E090E0892B41F080E090E0892B21F08F
:100720000E94000081111CC080E090E0892B41F004
:1007300080E090E0892B21F00E940000811113C01D
:1007400080E090E0892BA1F080E090E0892B81F09F
:100750000E94000081110AC008950E940000D8CFB5
:100760000E940000E1CF0E940000EACF0C9400003C
:1007700008958F929F92AF92BF92CF92DF92EF92A5
:10078000FF92CF93C82F0E94D901892B99F10E9423
:100790006E024B015C018EE5C82EDD24D394E12C62
:1007A000F12C0E946E02DC01CB0188199909AA097B
:1007B000BB09883E9340A105B10558F021E0C21A5B
:1007C000D108E108F10888EE880E83E0981EA11C8C
:1007D000B11CC114D104E104F10419F78C2FCF919D
:1007E000FF90EF90DF90CF90BF90AF909F908F9051
:1007F0000C94D90180E090E0CF91FF90EF90DF90D2
:10080000CF90BF90AF909F908F900895009769F020
:10081000FC0101900020E9F73197AF01481B590B0B
:10082000BC0181EE92E00C94930280E090E0089588
:10083000CF93DF930E940604EC0180E392E00E94D4
:1008400006048C0F9D1FDF91CF910895CF93DF9306
:10085000E091D602F091D702EE0FFF1FE05FFD4F4F
:1008600061E080810E94020283E392E00E9418040A
:10087000CBE9DFE0CE010197F1F7E091D602F091EC
:10088000D702EE0FFF1FE05FFD4F60E080810E9406
:1008900002028EE392E00E9418042197F1F7DF91A3
:1008A000CF9108958F929F92AF92BF920F931F9313
:1008B000CF93DF93CDB7DEB7A1970FB6F894DEBF25
:1008C0000FBECDBF19A2423008F44AE08E010F5D81
:1008D0001F4F842E912CA12CB12CA50194010E94B4
:1008E0004D09E62FB901CA0101501109EA3014F48B
:1008F000E05D01C0E95CD801EC93232B242B252B70
:1009000061F7C8010E940604A1960FB6F894DEBFF5
:100910000FBECDBFDF91CF911F910F91BF90AF90D0
:100920009F908F900895CF92DF92EF92FF92CF9396
:10093000DF936B017C0197FF12C08DE20E9478016A
:10094000EC0166277727CB016C197D098E099F0979
:100950004AE00E9452047C01EC0EFD1E04C04AE0F5
:100960000E9452047C0180E392E00E9406048E0DF6
:100970009F1DDF91CF91FF90EF90DF90CF90089572
:100980000E9477091F920F920FB60F9211242F9396
:100990003F938F939F93AF93BF938091D902909190
:1009A000DA02A091DB02B091DC023091D80223E0A0
:1009B000230F2D3720F40196A11DB11D05C026E897
:1009C000230F0296A11DB11D2093D8028093D90256
:1009D0009093DA02A093DB02B093DC028091DD02F7
:1009E0009091DE02A091DF02B091E0020196A11D7C
:1009F000B11D8093DD029093DE02A093DF02B093DD
:100A0000E002BF91AF919F918F913F912F910F90F5
:100A10000FBE0F901F9018951F920F920FB60F9256
:100A200011240BB60F922F933F934F935F936F93C5
:100A30007F938F939F93AF93BF93EF93FF9381EE39
:100A400092E00E94F602FF91EF91BF91AF919F91CA
:100A50008F917F916F915F914F913F912F910F9067
:100A60000BBE0F900FBE0F901F9018951F920F9204
:100A70000FB60F9211240BB60F922F938F939F9363
:100A8000EF93FF93E091F102F091F2028081E09107
:100A9000F702F091F80282FD12C090818091FA0273
:100AA0008F5F8F732091FB02821751F0E091FA0261
:100AB000F0E0EF51FD4F958F8093FA0201C08081E5
:100AC000FF91EF919F918F912F910F900BBE0F90FF
:100AD0000FBE0F901F901895789484B5826084BDE6
:100AE00084B5816084BD85B5826085BD85B5816032
:100AF00085BD80916E00816080936E0010928100B0
:100B0000809181008260809381008091810081606A
:100B1000809381008091800081608093800080912B
:100B2000B10084608093B1008091B00081608093B7
:100B3000B00080919100826080939100809191003B
:100B400081608093910080919000816080939000FB
:100B50008091A10082608093A1008091A1008160BA
:100B60008093A1008091A00081608093A00080917B
:100B70002101826080932101809121018160809315
:100B800021018091200181608093200180917A0071
:100B9000846080937A0080917A00826080937A00EA
:100BA00080917A00816080937A0080917A008068D9
:100BB00080937A001092C100E091F102F091F2026C
:100BC00082E08083E091ED02F091EE021082E091EC
:100BD000EF02F091F0028FEC80831092F902E09125
:100BE000F502F091F60286E08083E091F302F09145
:100BF000F402808180618083E091F302F091F4023D
:100C0000808188608083E091F302F091F40280811A
:100C100080688083E091F302F091F40280818F7DFF
:100C20008083C0E2D2E030E1C32E32E0D32E48E22E
:100C3000E42E42E0F42E08E112E08881229661E081
:100C40000E943202F6018081F2E0CF0ED11C61E0F9
:100C50000E943202F7018081F2E0EF0EF11C60E0A9
:100C60000E943202F80180810E5F1F4F60E00E94F7
:100C70003202F2E0C832DF0701F7C3E0D0E0D093E0
:100C8000D702C093D60260E082E20E940202E091A5
:100C9000D602F091D702EE0FFF1FE85DFD4F808175
:100CA00091810E94B903892B59F488E492E00E9453
:100CB00018048091D6029091D7020E942604E7CFB3
:100CC000E091D602F091D702EE0FFF1FE05EFD4FDC
:100CD00061E080810E940202C12CD12C7601E0915A
:100CE000D602F091D702EE0FFF1FE85EFD4F808124
:100CF00091810E94B903892BC1F484E692E00E949D
:100D000018048091D6029091D7020E9426048FEF9A
:100D1000C81AD80AE80AF80A8FE792E00E94060487
:100D2000C701B6010E949304DACF8CE892E00E94DA
:100D300006048DEB92E00E940604C701B6010E94F2
:100D40009304C701B6010E94260826E636E646EE61
:100D50005FE30E94DB086B017C014B015C0188EAC8
:100D600092E00E940604A7019601C701B6010E9405
:100D70004809882319F080EC92E01AC02601370157
:100D8000E89477F82FEF3FEF4FE75FE7C301B20139
:100D90000E94480981110FC02FEF3FEF4FE75FE737
:100DA000C301B2010E94F00718162CF484EC92E003
:100DB0000E94060474C02FEF3FEF4FE75FE4C701C6
:100DC000B6010E94D60818161CF488EC92E0F0CF09
:100DD0002FEF3FEF4FE75FECC701B6010E94F0072E
:100DE00087FDF3CF20E030E0A901C701B6010E94E2
:100DF000F00787FF09C08DE20E9478014601570184
:100E0000B7FAB094B7F8B0942AE037ED43EA5BE361
:100E1000C501B4010E9484074B015C010E94F507E3
:100E20006B017C010E9424089B01AC01C501B40147
:100E30000E9483074B015C014AE0C701B6010E9492
:100E400052048EE20E94780120E030E040E251E45A
:100E5000C501B4010E94DB084B015C010E94F5074B
:100E60006B01E12CF12C4AE0C701B6010E9452044B
:100E7000C701B6010E9424089B01AC01C501B40161
:100E80000E94830720E030E040E251E40E94DB084A
:100E90000E94F50780E090E04AE00E9452048CEC4A
:100EA00092E00E9418040E948003E9CEE1EEF2E095
:100EB0001382128288EE93E0A0E0B0E084839583F1
:100EC000A683B78384E092E09183808385EC90E0F1
:100ED0009587848784EC90E09787868780EC90E004
:100EE000918B808B81EC90E0938B828B82EC90E0F5
:100EF000958B848B86EC90E0978B868B118E128E6F
:100F0000138E148E08955058BB27AA270E949B0762
:100F10000C949C080E948E0838F00E94950820F0DE
:100F200039F49F3F19F426F40C948B080EF4E095E5
:100F3000E7FB0C948508E92F0E94AD0858F3BA1717
:100F4000620773078407950720F079F4A6F50C94DF
:100F5000CF080EF4E0950B2EBA2FA02D0B01B9018E
:100F600090010C01CA01A0011124FF27591B99F01F
:100F7000593F50F4503E68F11A16F040A22F232F2B
:100F8000342F4427585FF3CF469537952795A7957B
:100F9000F0405395C9F77EF41F16BA0B620B730B22
:100FA000840BBAF09150A1F0FF0FBB1F661F771F93
:100FB000881FC2F70EC0BA0F621F731F841F48F448
:100FC000879577956795B795F7959E3F08F0B0CFD1
:100FD0009395880F08F09927EE0F979587950895B8
:100FE0000E94610808F481E008950E94B50888F025
:100FF0009F5798F0B92F9927B751B0F0E1F0660FDD
:10100000771F881F991F1AF0BA95C9F714C0B1301D
:1010100091F00E94CF08B1E008950C94CF08672F9B
:10102000782F8827B85F39F0B93FCCF3869577954C
:101030006795B395D9F73EF4909580957095619535
:101040007F4F8F4F9F4F0895E89409C097FB3EF460
:1010500090958095709561957F4F8F4F9F4F992305
:10106000A9F0F92F96E9BB279395F6958795779583
:101070006795B795F111F8CFFAF4BB0F11F460FF43
:101080001BC06F5F7F4F8F4F9F4F16C0882311F09B
:1010900096E911C0772321F09EE8872F762F05C0AF
:1010A000662371F096E8862F70E060E02AF09A954A
:1010B000660F771F881FDAF7880F9695879597F93F
:1010C0000895990F0008550FAA0BE0E8FEEF1616D9
:1010D0001706E807F907C0F012161306E407F5072C
:1010E00098F0621B730B840B950B39F40A2661F0A0
:1010F000232B242B252B21F408950A2609F4A14043
:10110000A6958FEF811D811D089597F99F6780E84F
:1011100070E060E008959FEF80EC089500240A9449
:101120001616170618060906089500240A941216C2
:101130001306140605060895092E0394000C11F4F5
:10114000882352F0BB0F40F4BF2B11F460FF04C0A2
:101150006F5F7F4F8F4F9F4F089557FD9058440FFB
:10116000551F59F05F3F71F04795880F97FB991F06
:1011700061F09F3F79F087950895121613061406C3
:10118000551FF2CF4695F1DF08C016161706180650
:10119000991FF1CF86957105610508940895E8942B
:1011A000BB2766277727CB0197F908950E9461082E
:1011B00008F48FEF08950E94EE080C949C080E949A
:1011C0008E0838F00E94950820F0952311F00C94B9
:1011D00085080C948B0811240C94D0080E94AD084B
:1011E00070F3959FC1F3950F50E0551F629FF0017A
:1011F000729FBB27F00DB11D639FAA27F00DB11D93
:10120000AA1F649F6627B00DA11D661F829F22271B
:10121000B00DA11D621F739FB00DA11D621F839FA2
:10122000A00D611D221F749F3327A00D611D231F78
:10123000849F600D211D822F762F6A2F11249F57C6
:1012400050409AF0F1F088234AF0EE0FFF1FBB1FC9
:10125000661F771F881F91505040A9F79E3F510588
:1012600080F00C9485080C94D0085F3FE4F3983E1E
:10127000D4F3869577956795B795F795E7959F5F32
:10128000C1F7FE2B880F911D9695879597F90895C4
:101290000E946108880B990B0895A1E21A2EAA1BDF
:1012A000BB1BFD010DC0AA1FBB1FEE1FFF1FA21716
:1012B000B307E407F50720F0A21BB30BE40BF50B13
:1012C000661F771F881F991F1A9469F7609570959C
:1012D000809590959B01AC01BD01CF010895EE0F63
:1012E000FF1F881F8BBF0790F691E02D199481E0B6
:0C12F00090E0F8940C947C09F894FFCF77
:1012FC000000000017039302E002BE02D2025E035C
:10130C0017001B001F00230019001D0021001900ED
:10131C0016001A001E00220018001C0020001800E5
:10132C000D0A004D6F746F722048696768004D6F2D
:10133C00746F72204C6F7700456E746572696E67BE
:10134C0020414357204D6F746F7220526F7461743B
:10135C00696F6E00456E746572696E672043572025
:10136C004D6F746F7220526F746174696F6E00539D
:10137C0074657020636F756E743A2000546F7461DD
:10138C006C2073746570732074616B656E20627968
:10139C00204D6F746F722000546F74616C20616EFD
:1013AC00676C65207472617665727365643A2000AF
:1013BC006E616E00696E66006F766600206465670C
:0613CC007265657300006C
:00000001FF
