:100000000C9445010C9476010C9476010C947601C5
:100010000C9476010C9476010C9476010C94760184
:100020000C9476010C9476010C9476010C94760174
:100030000C9476010C9476010C9476010C94760164
:100040000C9476010C9476010C9476010C94760154
:100050000C9476010C9476010C9476010C94520465
:100060000C9476010C94C6040C949C040C947601B8
:100070000C9476010C9476010C9476010C94760124
:100080000C9476010C9476010C9476010C94760114
:100090000C9476010C9476010C9476010C94760104
:1000A0000C9476010C9476010C9476010C947601F4
:1000B0000C9476010C9476010C9476010C947601E4
:1000C0000C9476010C9476010C9476010C947601D4
:1000D0000C9476010C9476010C9476010C947601C4
:1000E0000C947601A606A90698069C06A006E006D2
:1000F000AD06B106B706BB06BF06C506C906CD06E6
:10010000E006D306D706DB060C94AD060C94C906B0
:100110000C94DB060C9437020C9490020C94A0060D
:100120000C9498060C94A6060C94E0060C94D30646
:100130000C9459020C94B1060C940C020C94B70662
:100140000C94D7060C94D7020C94A9060C94CD06F7
:100150000C94BB060C94C5060C949C060C94BF062C
:100160000C944B020C946F07000020002300260023
:1001700029002C002F0032000001000003010601BD
:10018000090100000A0B02090C0D0E080703040107
:10019000000000000000000000000000000000005F
:1001A000000000000000000000000000000012112C
:1001B000100000000000000000000000000000002F
:1001C00000000000000000000000220025002800C0
:1001D0002B002E003100340002010000050108014F
:1001E0000B0100002100240027002A002D00300010
:1001F000330001010000040107010A01050505059E
:10020000070508080808020202020A0A080804048E
:1002100004040101010101010101030303030303BC
:100220000303040707070C0C0C0C0C0C0C0C02024B
:10023000020206060606060606060B0B0B0B0B0B48
:100240000B0B0102102020080810204010204080D5
:10025000020102010804020101020408102040808A
:100260008040201008040201800402018040201018
:100270000804020108040201010204081020408061
:1002800001020408102040806F0711241FBECFEF29
:10029000D1E2DEBFCDBF00E00CBF23E0A6EDB2E0AF
:1002A00001C01D92A138B207E1F712E0A0E0B2E070
:1002B000E8EFF3E100E00BBF02C007900D92A63D0E
:1002C000B107D9F711E0C5E4D1E000E006C02197FD
:1002D0000109802FFE010E94BE07C434D10780E0CF
:1002E0000807A9F70E94FC040C94FA090C9400007A
:1002F000CF93DF9390E0FC01EE5BFD4F2491FC0176
:10030000E450FE4F84918823C1F090E0880F991F3C
:10031000FC01EE51FE4FC591D491FC01E853FE4F14
:10032000A591B4919FB7F8948881E22FE0958E2330
:1003300088838C91E823EC939FBFDF91CF91089540
:100340002FB7F8948091DC029091DD02A091DE023B
:10035000B091DF022FBF8093E8029093E902A0934F
:10036000EA02B093EB02E091E002F091E102068034
:10037000F781E02D80EE92E0199597FF26C02FB708
:10038000F8948091DC029091DD02A091DE02B091A0
:10039000DF022FBF4091E8025091E9026091EA022A
:1003A0007091EB02841B950BA60BB70B4091E402F6
:1003B0005091E5026091E6027091E702841795077B
:1003C000A607B70780F28FEF9FEF08953FB7F89425
:1003D0008091D8029091D902A091DA02B091DB020B
:1003E00026B5A89B05C02F3F19F00196A11DB11D90
:1003F0003FBFBA2FA92F982F8827820F911DA11DCB
:10040000B11DBC01CD0142E0660F771F881F991F07
:100410004A95D1F708950895CF92DF92EF92FF9217
:100420000F931F93CF93DF936C017A018B01C0E090
:10043000D0E0CE15DF0589F0D8016D918D01D60190
:10044000ED91FC910190F081E02DC6011995892B69
:1004500011F47E0102C02196ECCFC701DF91CF914C
:100460001F910F91FF90EF90DF90CF900895FC01C6
:10047000918D828D981761F0828DDF01A80FB11DDB
:100480005D968C91928D9F5F9F73928F90E00895FF
:100490008FEF9FEF0895FC01918D828D981731F0B9
:1004A000828DE80FF11D858D90E008958FEF9FEF0D
:1004B0000895FC01918D228D892F90E0805C9F4FE3
:1004C000821B91098F739927089580EE92E00E9414
:1004D000590221E0892B09F420E0822F0895FC01C4
:1004E000848DDF01A80FB11DA35ABF4F2C91848DBD
:1004F00090E001968F739927848FA689B7892C93F2
:10050000A089B1898C9180648C93938D848D98138C
:1005100006C00288F389E02D80818F7D8083089555
:10052000EF92FF920F931F93CF93DF93EC0181E043
:10053000888F9B8D8C8D981305C0E889F9898081FF
:1005400085FD24C0F62E0B8D10E00F5F1F4F0F733B
:100550001127E02E8C8DE8120CC00FB607FCFACFE5
:10056000E889F989808185FFF5CFCE010E946F026D
:10057000F1CF8B8DFE01E80FF11DE35AFF4FF082A2
:100580000B8FEA89FB898081806207C0EE89FF8931
:100590006083E889F98980818064808381E090E0CC
:1005A000DF91CF911F910F91FF90EF900895CF931E
:1005B000DF93EC01888D8823C9F0EA89FB8980816B
:1005C00085FD05C0A889B9898C9186FD0FC00FB63D
:1005D00007FCF5CF808185FFF2CFA889B9898C917E
:1005E00085FFEDCFCE010E946F02E7CFDF91CF9163
:1005F000089580E090E0892B21F00E94650281112E
:1006000025C080E090E0892B41F080E090E0892BCC
:1006100021F00E94000081111CC080E090E0892B35
:1006200041F080E090E0892B21F00E9400008111D0
:1006300013C080E090E0892BA1F080E090E0892B4E
:1006400081F00E94000081110AC008950E940000FC
:10065000D8CF0E940000E1CF0E940000EACF0C94A6
:1006600000000895009769F0FC0101900020E9F76F
:100670003197AF01481B590BBC0180EE92E00C94FE
:100680000C0280E090E00895CF93DF930E94320344
:10069000EC018AE292E00E9432038C0F9D1FDF91F1
:1006A000CF9108958F929F92AF92BF920F931F9315
:1006B000CF93DF93CDB7DEB7A1970FB6F894DEBF27
:1006C0000FBECDBF19A2423008F44AE08E010F5D83
:1006D0001F4F842E912CA12CB12CA50194010E94B6
:1006E0009C07E62FB901CA0101501109EA3014F440
:1006F000E05D01C0E95CD801EC93232B242B252B72
:1007000061F7C8010E943203A1960FB6F894DEBFCC
:100710000FBECDBFDF91CF911F910F91BF90AF90D2
:100720009F908F900895CF92DF92EF92FF92CF9398
:10073000DF936B017C01E091E002F091E102019016
:10074000F081E02D6DE280EE92E01995EC016627D4
:100750007727CB016C197D098E099F094AE00E9419
:1007600052038C0F9D1FDF91CF91FF90EF90DF9090
:10077000CF9008950E94DC09FC0124813581232B50
:1007800031F421E061157105A1F0FB0108C0FC0105
:10079000808191816115710531F421E0FC01808136
:1007A000882339F005C00E94EA0921E0892B09F06D
:1007B00020E0822F08950F931F93CF93DF93EC01D6
:1007C00088819981009729F02A813B812617370774
:1007D00088F48B016F5F7F4F0E94F308009761F0F0
:1007E000998388831B830A832C813D81232B11F4F9
:1007F000FC01108281E001C080E0DF91CF911F9168
:100800000F910895EF92FF920F931F93CF93DF9371
:10081000EC01198218821B821A821D821C826115CA
:10082000710549F18B01FB0101900020E9F7319737
:100830007F01E61AF70AB7010E94DB03288139819C
:1008400081110DC02115310519F0C9010E945B0805
:10085000198218821D821C821B821A820CC0FD82A2
:10086000EC82B801C901DF91CF911F910F91FF90E8
:10087000EF900C94F309DF91CF911F910F91FF90AE
:10088000EF900895BC01990F880B990B97FF03C057
:100890000E94930303C04AE00E9452038AE292E05E
:1008A0000C9432031F920F920FB60F9211242F93C4
:1008B0003F938F939F93AF93BF938091DC0290916E
:1008C000DD02A091DE02B091DF023091D70223E079
:1008D000230F2D3720F40196A11DB11D05C026E878
:1008E000230F0296A11DB11D2093D7028093DC0235
:1008F0009093DD02A093DE02B093DF028091D802D4
:100900009091D902A091DA02B091DB020196A11D6B
:10091000B11D8093D8029093D902A093DA02B093CC
:10092000DB02BF91AF919F918F913F912F910F90DB
:100930000FBE0F901F9018951F920F920FB60F9237
:1009400011240BB60F922F933F934F935F936F93A6
:100950007F938F939F93AF93BF93EF93FF9380EE1B
:1009600092E00E946F02FF91EF91BF91AF919F9132
:100970008F917F916F915F914F913F912F910F9048
:100980000BBE0F900FBE0F901F9018951F920F92E5
:100990000FB60F9211240BB60F922F938F939F9344
:1009A000EF93FF93E091F002F091F1028081E091EA
:1009B000F602F091F70282FD12C090818091F90257
:1009C0008F5F8F732091FA02821751F0E091F90244
:1009D000F0E0E052FD4F958F8093F90201C08081D5
:1009E000FF91EF919F918F912F910F900BBE0F90E0
:1009F0000FBE0F901F901895CF93DF93CDB7DEB742
:100A00002E970FB6F894DEBF0FBECDBF789484B595
:100A1000826084BD84B5816084BD85B5826085BDFA
:100A200085B5816085BD80916E00816080936E0088
:100A3000109281008091810082608093810080917A
:100A4000810081608093810080918000816080932B
:100A500080008091B10084608093B1008091B000EB
:100A600081608093B00080919100826080939100BA
:100A700080919100816080939100809190008160CD
:100A8000809390008091A10082608093A10080916A
:100A9000A10081608093A1008091A000816080937B
:100AA000A000809121018260809321018091210129
:100AB00081608093210180912001816080932001D9
:100AC00080917A00846080937A0080917A008260BD
:100AD00080937A0080917A00816080937A0080917F
:100AE0007A00806880937A001092C100E091F00251
:100AF000F091F10282E08083E091EC02F091ED024E
:100B00001082E091EE02F091EF028FEC8083109260
:100B1000F802E091F402F091F50286E08083E09122
:100B2000F202F091F302808180618083E091F20211
:100B3000F091F302808188608083E091F202F0916D
:100B4000F302808180688083E091F202F091F302E9
:100B500080818F7D808300E212E066E1E62E62E014
:100B6000F62EF80180810E5F1F4F0E947801F70179
:100B70008081F2E0EF0EF11C0E94780122E00A323F
:100B8000120779F785E00E94780184E00E947801DD
:100B900086E00E9478018DE292E00E94440385E79E
:100BA00092E00E944403332433940BE911E04BE5B7
:100BB000E42E42E0F42E55E1C52E52E0D52E6CE233
:100BC00072E0CE0107960E94020480EE92E00E943D
:100BD0005902892B09F458C06CE272E0CE010196EB
:100BE0000E9402040E94A00197FD1CC08D871E86F2
:100BF0006D807E808FEF681A780AB301CE0101966E
:100C00000E94DB03882371F329813A818D819E81C3
:100C1000BE01635F7F4F820F931F0E94F3097E82A4
:100C20006D82E0CF8F8198850097A9F069817A81E4
:100C30006115710571F049855A852D813E814217F4
:100C4000530738F00E94F3098D819E819C878B8722
:100C500012C00E945B0889819A8198878F838B815B
:100C60009C819A8789878D819E819C878B871A8238
:100C700019821C821B821E821D8289819A810E9498
:100C80005B083092D60202C01092D6028091D60242
:100C9000882389F187E992E00E9432034B855C85C5
:100CA0006F81788580EE92E00E940C028AE292E0E9
:100CB0000E94320368EA72E0CE0107960E94BC03EC
:100CC0008111C8C06CEA72E0CE0107960E94BC0395
:100CD0008111C0C067EB72E0CE0107960E94BC0391
:100CE000811109C06DEB72E0CE0107960E94BC0332
:100CF000882309F4B2C082EB92E00E943203F8012B
:100D00004491F7012491F6019491992309F46AC062
:100D1000442309F455C050E0FA013197E231F1055E
:100D200008F04EC08827EE58FF4F8F4F0C94BE0737
:100D3000809180008F7707C0809180008F7D03C0F5
:100D400080918000877F809380003AC084B58F7740
:100D500002C084B58F7D84BD33C08091B0008F7791
:100D600003C08091B0008F7D8093B00029C0809136
:100D700090008F7707C0809190008F7D03C0809195
:100D80009000877F809390001BC08091A0008F7798
:100D900007C08091A0008F7D03C08091A000877F55
:100DA0008093A0000DC0809120018F7707C08091B3
:100DB00020018F7D03C080912001877F80932001D7
:100DC000892F90E0880F991F88599E4FFC01A591AB
:100DD000B4918C91282391E080E009F490E0692F90
:100DE000782F02C060E070E0072E000C880B990B92
:100DF0004AE00E9452030E94E6014B015C0188EC2C
:100E0000482E512C612C712C0E94E601DC01CB0193
:100E100088199909AA09BB09883E9340A105B10523
:100E200058F0F1E04F1A51086108710828EE820E5F
:100E300023E0921EA11CB11C4114510461047104F1
:100E400019F71092D6028F8198850E945B080E9444
:100E5000F902B5CE80E090E038C06BEB72E0CE01D5
:100E600007960E94BC03811108C065EC72E0CE01B8
:100E700007960E94BC03882319F082E090E025C009
:100E80006FEB72E0CE0107960E94BC03811108C08F
:100E90006EEA72E0CE0107960E94BC03882319F027
:100EA00083E090E012C063EC72E0CE0107960E94EE
:100EB000BC03811108C060EB72E0CE0107960E946E
:100EC000BC03882329F084E090E00E94420413CF01
:100ED00087EC92E00E9444031092D6020CCFE0EE21
:100EE000F2E01382128288EE93E0A0E0B0E0848307
:100EF0009583A683B7838AE092E09183808385EC13
:100F000090E09587848784EC90E09787868780ECD3
:100F100090E0918B808B81EC90E0938B828B82ECC4
:100F200090E0958B848B86EC90E0978B868B118E6E
:100F3000128E138E148E0895A1E21A2EAA1BBB1BCB
:100F4000FD010DC0AA1FBB1FEE1FFF1FA217B30795
:100F5000E407F50720F0A21BB30BE40BF50B661FAB
:100F6000771F881F991F1A9469F76095709580956F
:100F700090959B01AC01BD01CF010895EE0FFF1FBD
:100F8000881F8BBF0790F691E02D1994CF93DF93C4
:100F90008230910510F482E090E0E0917F03F091BF
:100FA000800320E030E0C0E0D0E0309711F14081D4
:100FB000518148175907C0F04817590761F48281D9
:100FC0009381209719F09B838A832BC09093800391
:100FD00080937F0326C02115310519F0421753076E
:100FE00018F49A01BE01DF01EF010280F381E02DC8
:100FF000DCCF2115310509F1281B390B24303105CF
:1010000090F412968D919C9113976115710521F0C2
:10101000FB019383828304C09093800380937F03BA
:10102000FD01329644C0FD01E20FF31F81939193BD
:10103000225031092D933C933AC020917D03309189
:101040007E03232B41F4209102023091030230935E
:101050007E0320937D03209100023091010221152F
:10106000310541F42DB73EB740910402509105027D
:10107000241B350BE0917D03F0917E03E217F3070B
:10108000A0F42E1B3F0B2817390778F0AC014E5FF8
:101090005F4F2417350748F04E0F5F1F50937E03B4
:1010A00040937D038193919302C0E0E0F0E0CF0193
:1010B000DF91CF9108950F931F93CF93DF93009704
:1010C00009F48CC0FC0132971382128200917F03D5
:1010D000109180030115110581F420813181820F67
:1010E000931F20917D0330917E032817390779F5EE
:1010F000F0937E03E0937D0371C0D80140E050E09F
:10110000AE17BF0750F412962D913C911397AD0185
:101110002115310509F1D901F3CF9D01DA0133839E
:10112000228360817181860F971F8217930769F46C
:10113000EC0128813981260F371F2E5F3F4F318305
:1011400020838A819B8193838283452B29F4F093AA
:101150008003E0937F0342C01396FC93EE931297B3
:10116000ED01499159919E01240F351FE217F307B4
:1011700071F480819181840F951F029611969C9342
:101180008E938281938113969C938E931297E0E0C5
:10119000F0E0D80112968D919C911397009719F069
:1011A000F8018C01F6CF8D919C9198012E5F3F4FF5
:1011B000820F931F20917D0330917E0328173907FA
:1011C00069F4309729F41092800310927F0302C0D3
:1011D0001382128210937E0300937D03DF91CF91DF
:1011E0001F910F9108956F927F928F929F92AF926D
:1011F000BF92CF92DF92EF92FF920F931F93CF9304
:10120000DF93EC01009789F4CB01DF91CF911F911F
:101210000F91FF90EF90DF90CF90BF90AF909F9095
:101220008F907F906F900C94C607FC01E60FF71F1C
:101230009C0122503109E217F30708F4ACC0D90130
:101240000D911C91119706171707B0F00530110585
:1012500008F49FC0C80104978617970708F499C03F
:1012600002501109061B170B019311936D937C9388
:10127000CF010E945B088DC05B01A01AB10A4C012E
:10128000800E911EA0917F03B091800340E050E05A
:10129000E12CF12C109709F44AC0A815B905D1F535
:1012A0006D907C901197630182E0C80ED11CCA1426
:1012B000DB0480F1A3014A195B096A0182E0C80ED0
:1012C000D11C1296BC9012971396AC91B5E0CB1638
:1012D000D10440F0B282A38351834083D9016D933E
:1012E0007C930AC00E5F1F4FC301800F911FF9014D
:1012F00091838083EB2DFA2FE114F10431F0D701B3
:101300001396FC93EE93129744C0F0938003E093FE
:101310007F033FC08D919C9111974817590708F49E
:10132000AC017D0112960D90BC91A02DB3CF8091A0
:101330007D0390917E0388159905E1F446175707C0
:10134000C8F48091000290910102009741F48DB79A
:101350009EB74091040250910502841B950BE8173B
:10136000F907C8F4F0937E03E0937D03F9017183DC
:1013700060830FC0CB010E94C6077C01009759F023
:10138000A801BE010E94E109CE010E945B08C701CD
:1013900004C0CE0102C080E090E0DF91CF911F91A8
:1013A0000F91FF90EF90DF90CF90BF90AF909F9004
:1013B0008F907F906F90089581E090E0F8940C9466
:1013C000FA09FB01DC0102C001900D92415050402E
:1013D000D8F70895FB01DC018D910190801901106F
:1013E000D9F3990B0895FB01DC0101900D920020C7
:0813F000E1F70895F894FFCF26
:1013F8000000810380000000000090020C025902E6
:1014080037024B02D70219001D00210025000B00EE
:1014180018001C00200024000A000D0A004C696D09
:101428006974205377697463682054657374696EAE
:10143800672E20456E74657220746865204C696D4E
:1014480069742053776974636820506F736974698D
:101458006F6E20796F75207769736820746F2074B8
:101468006573742E002045672E20534D31202F20A0
:10147800534D32202F20454D31202F20484D31200B
:101488002F20484D323F00436865636B696E6720C3
:101498004D6F746F723A2000534D310030003300A5
:1014A800340043573A2000534D3200454D3100482F
:1014B8004D3100484D3200496E76616C6964206D8B
:0614C8006F746F7200005A
:00000001FF
